:020000040800F2
:100000000000022025230008B1220008B3220008C6
:10001000B5220008B7220008B9220008000000003D
:10002000000000000000000000000000BB220008EB
:10003000BD22000800000000BF220008C122000805
:100040007523000875230008752300087523000830
:100050007523000875230008752300087523000820
:100060007523000875230008752300087523000810
:100070007523000875230008752300087523000800
:1000800075230008752300087523000875230008F0
:1000900075230008752300087523000875230008E0
:1000A00075230008752300087523000875230008D0
:1000B00075230008752300087523000875230008C0
:1000C00075230008752300087523000875230008B0
:1000D00075230008752300087523000875230008A0
:1000E0007523000875230008752300087523000890
:1000F0007523000875230008752300087523000880
:10010000752300087523000875230008752300086F
:10011000752300087523000875230008C92200080C
:10012000752300087523000875230008752300084F
:10013000752300080000000000000000752300087F
:10014000752300087523000875230008752300082F
:10015000752300087523000875230008752300081F
:10016000752300087523000875230008752300080F
:10017000752300087523000875230008000000009F
:1001800000000000752300080000000000000000CF
:10019000752300080000000000000000752300081F
:1001A00000000000000000000000000075230008AF
:1001B00075230008752300087523000875230008BF
:0401C000752300089B
:1001C40010B5054C237833B9044B13B10448AFF38D
:1001D40000800123237010BD0C00002000000000EB
:1001E400D023000808B5034B1BB103490348AFF300
:1001F400008008BD0000000010000020D02300088B
:1002040053B94AB9002908BF00281CBF4FF0FF3179
:100214004FF0FF3000F072B9ADF1080C6DE904CE77
:1002240000F006F8DDF804E0DDE9022304B07047CD
:100234002DE9F047089E04468846002B4BD18A429C
:10024400154667D9B2FA82F24AB1C2F1200701FA1F
:1002540002F320FA07F7954047EA030894404FEA6F
:10026400154E230CB8FBFEF71FFA85FC0EFB17880E
:1002740043EA084307FB0CF1994209D9EB1807F14B
:10028400FF3080F01B81994240F21881023F2B44D9
:100294005B1AA4B2B3FBFEF00EFB103344EA034432
:1002A40000FB0CFCA44509D92C1900F1FF3380F0A4
:1002B4000781A44540F2048102382C4440EA0740F7
:1002C400A4EB0C0400271EB1D4400023C6E900436C
:1002D4003946BDE8F0878B4209D9002E00F0EB8047
:1002E4000027C6E9000138463946BDE8F087B3FA6D
:1002F40083F7002F47D18B4202D3824200F2FA8067
:10030400841A61EB030301209846002EE0D0C6E96D
:100314000048DDE702B9FFDEB2FA82F2002A40F0BB
:100324008F80491B4FEA154E1FFA85F80127B1FB50
:10033400FEFC230C0EFB1C1143EA014308FB0CF1E9
:10034400994207D9EB180CF1FF3002D2994200F21E
:10035400CD808446591AA3B2B1FBFEF00EFB1014F3
:1003640043EA044408FB00F8A04507D92C1900F11E
:10037400FF3302D2A04500F2B6801846A4EB08046D
:1003840040EA0C409FE7C7F1200CBB4022FA0CFE68
:100394004EEA030E01FA07F420FA0CF521FA0CF3E5
:1003A4004FEA1E482543B3FBF8F92C0C08FB19331C
:1003B4001FFA8EFA44EA034309FB0AF49C4202FA48
:1003C40007F200FA07F10BD91EEB030309F1FF3022
:1003D40080F087809C4240F28480A9F10209734432
:1003E4001B1BADB2B3FBF8F008FB103345EA034422
:1003F40000FB0AFAA24508D91EEB040400F1FF33FE
:100404006BD2A24569D90238744440EA0940A0FB82
:100414000289A4EB0A044C45C2464B4654D351D03E
:10042400002E69D0B1EB0A0564EB030404FA0CFC5A
:10043400FD40FC404CEA0505C6E90054002747E7A7
:10044400C2F1200320FA03F7954001FA02F021FAE1
:1004540003F34FEA154E3843010CB3FBFEF71FFAC2
:1004640085F80EFB173341EA034107FB08F38B427F
:1004740004FA02F407D9691807F1FF3C2FD28B4222
:100484002DD9023F2944CB1A81B2B3FBFEF00EFBF7
:10049400103341EA034100FB08F38B4207D9691882
:1004A40000F1FF3C17D28B4215D902382944C91AEE
:1004B40040EA07473BE73746304609E70746E7E6A1
:1004C4001846FBE64145ABD2B8EB020A69EB0E02D3
:1004D40001381346A4E76046E9E7184695E76746FE
:1004E400D1E781467CE702382C4447E7ACF1020CA3
:1004F4002B442FE7384608E73746E9E6704700BF44
:1005040010B504460E4B18784FF47A73B3FBF0F32E
:100514000C4A1068B0FBF3F000F096F868B90F2CA1
:1005240001D901200AE0002221464FF0FF3000F0FB
:1005340049F8034B5C60002000E0012010BD00BFBF
:10054400000000200800002008B50B4B1A6842F494
:1005540000721A601A6842F480621A601A6842F4DF
:1005640080721A60032000F01BF80020FFF7C8FF18
:1005740001F050FD002008BD003C0240034A116810
:10058400034B1B780B441360704700BFBC01002071
:1005940000000020014B1868704700BFBC01002018
:1005A400074AD36823F4E0631B041B0C000200F425
:1005B400E060184340F0BF6040F40030D060704702
:1005C40000ED00E030B4174BDB68C3F30223C3F142
:1005D4000704042C28BF04241D1D062D18D9033B31
:1005E4004FF0FF3505FA04F421EA0401994005FAB5
:1005F40003F322EA0303194300280BDB0901C9B200
:1006040000F1604000F5614080F8001330BC704791
:100614000023E5E700F00F000901C9B2024B1954A9
:10062400F4E700BF00ED00E014ED00E0002807DB74
:1006340000F01F02400901239340024A42F820308F
:10064400704700BF00E100E00138B0F1807F0AD2BA
:10065400064B5860064AF02182F823100020986067
:1006640007221A6070470120704700BF10E000E0C5
:1006740000ED00E000230F2B00F2D180F0B482B033
:1006840039E0062200E00022B2403A430234644ECC
:1006940046F82420634A1468EA4302EA04064F68D1
:1006A40017F4803F01D045EA04065E4C2660646876
:1006B40002EA04064F6817F4003F01D045EA040635
:1006C400584C6660A46802EA04064F6817F4801F59
:1006D40001D045EA0406534CA660E46822404E6803
:1006E40016F4001F01D045EA04024E4CE2600133C7
:1006F4000F2B00F2918001229A400C6804EA020553
:10070400AA42F4D14C68022C01D0122C10D1DE087C
:10071400083650F826C003F00704A7000F24BC4095
:100724002CEA040C0C69BC4044EA0C0440F8264052
:1007340004685F000326BE40F64306EA040C4C68D6
:1007440004F00304BC4044EA0C0404604C6804F163
:10075400FF3CBCF1010F03D9112C01D0122C10D194
:10076400846806EA040CCC68BC4044EA0C04846047
:10077400446824EA02024C68C4F300149C40144305
:100784004460C26816408A68BA403243C2604A680C
:1007940012F0805FABD000220192234A546C44F4DF
:1007A40080445464526C02F480420192019A9C0881
:1007B400A61C1B4A52F8267003F0030296000F226F
:1007C400B24027EA0207194A90423FF45CAF02F5AF
:1007D4008062904216D002F58062904214D002F5F5
:1007E4008062904212D002F58062904210D002F5ED
:1007F400806290420ED002F5806290423FF441AF95
:10080400072241E701223FE702223DE703223BE7BB
:10081400042239E7052237E702B0F0BC704770477D
:1008240000380140003C0140003802400000024012
:1008340012B909048161704781617047002800F092
:10084400BE80F8B5044690F83D30002B6BD02423CD
:1008540084F83D302268136823F00103136000F02C
:10086400AFF96268584B9A4262D8584B98428CBF91
:1008740000230123002B40F0A480554BA3FB00234D
:100884009B0C21684A6822F03F021A434A6025689B
:100894002A6A22F03F0266684B498E424ED80133E1
:1008A40013432B622568E96921F44F4121F0FF01CC
:1008B4006368454A93424BD801385B00B0FBF3F3BD
:1008C4000133C3F30B03042B38BF04230B43EB6145
:1008D40021680B6823F0C003E269206A02431343D2
:1008E4000B6021688B6823F4034323F0FF03226920
:1008F400E068024313438B602168CB6823F0FF0355
:100904006269A06902431343CB602268136843F011
:100914000103136000202064202384F83D30206309
:1009240084F83E00F8BD80F83C3001F08FFB8EE780
:10093400284B98428CBF002301239BE74FF4967108
:1009440001FB03F32449A1FB03139B090133A7E72C
:10095400A268BAB9461E03EB4307B6FBF7F60136A5
:10096400C6F30B06B6FA86F6760936BBC2B9013869
:1009740003EB4303B0FBF3F30133C3F30B0242F481
:100984000043A3E7461E03EB830707EB8707B6FB89
:10099400F7F60136C6F30B06B6FA86F67609E4E7EF
:1009A400013803EB830303EB8303B0FBF3F201325F
:1009B400C2F30B0242F4404388E7012386E7012097
:1009C40070470120AEE700BFA08601007F841E00AF
:1009D40083DE1B43FF083D00D34D621010B582B087
:1009E40000230193194B1A6C42F080521A641B6C59
:1009F40003F080530193019B154B01221A60FFF70A
:100A0400C9FD0446134B5B6813F4803F08D1FFF71C
:100A1400C1FD001BB0F57A7FF4D9032002B010BDEC
:100A24000D4B01221A60FFF7B5FD0446094B5B68C4
:100A340013F4003F07D1FFF7ADFD001BB0F57A7F3B
:100A4400F4D90320EAE70020E8E700BF00380240B9
:100A540040000E420070004044000E42002800F0A6
:100A64009D8070B504464F4B1B6803F00F038B4207
:100A740009D2CBB24B4A1370136803F00F038B42B5
:100A840001D0012070BD236813F0020F17D013F0BA
:100A9400040F04D0444A936843F4E05393602368FA
:100AA40013F0080F04D0404A936843F46043936002
:100AB4003D4A936823F0F003A068034393600D4616
:100AC400236813F0010F32D06368012B21D09A1EE2
:100AD400012A25D9344A126812F0020F60D0324933
:100AE4008A6822F0030213438B60FFF753FD064626
:100AF4002D4B9B6803F00C036268B3EB820F16D096
:100B0400FFF748FD801B41F288339842F0D9032057
:100B1400B8E7254A126812F4003FE0D10120B1E79A
:100B2400214A126812F0007FD9D10120AAE71D4B97
:100B34001B6803F00F03AB4209D9EAB2194B1A70D0
:100B44001B6803F00F03AB4201D001209AE723682E
:100B540013F0040F06D0144A936823F4E053E168B9
:100B64000B439360236813F0080F07D00E4A936871
:100B740023F46043216943EAC103936000F040F821
:100B8400094B9B68C3F30313084AD35CD840084B52
:100B940018600020FFF7B4FC002073E701207047C1
:100BA40001206FE7003C024000380240E8230008BF
:100BB40008000020014B1868704700BF080000209F
:100BC40008B5FFF7F7FF044B9B68C3F38223034A7E
:100BD400D35CD84008BD00BF00380240F8230008A9
:100BE40008B5FFF7E7FF044B9B68C3F34233034A9E
:100BF400D35CD84008BD00BF00380240F823000889
:100C04002DE9F04B444B9B6803F00C03082B06D0F2
:100C14000C2B42D0042B7CD04048BDE8F08B3E4BDB
:100C24005A6802F03F025B6813F4800F12D03A4B0B
:100C34005968C1F3881100233948A1FB0001FFF76B
:100C4400DFFA354B5B68C3F3014301335B00B0FB50
:100C5400F3F0E2E7304B5B68C3F388131E460027CA
:100C64005C010025E41A65EB0705A90141EA9461DA
:100C7400A001001B61EB0501CB0043EA5073C400E3
:100C8400A01943EB07018B0243EA905384022046E8
:100C940019460023FFF7B4FAD3E71F4B5A6802F052
:100CA4003F025B6813F4800F10D01B4B5968C1F3EB
:100CB400881100231A48A1FB0001FFF7A1FA164B83
:100CC4005B68C3F30273B0FBF3F0A6E7124B5B68F7
:100CD400C3F388131E4600275C010025E41A65EB64
:100CE4000705A90141EA9461A001001B61EB05011C
:100CF400CB0043EA5073C400A01943EB07018B02F5
:100D040043EA90538402204619460023FFF778FAF9
:100D1400D5E7034881E700BF003802400024F4000F
:100D240040787D0170B582B00446036813F0010F6A
:100D340041D0A64B9B6803F00C03042B32D0A34B89
:100D44009B6803F00C03082B27D0A04B9B6803F08F
:100D54000C030C2B59D06368B3F5803F5BD0B3F51B
:100D6400A02F5ED0994B1A6822F480321A601A6858
:100D740022F480221A606368002B5CD0FFF70AFC1F
:100D84000546924B1B6813F4003F14D1FFF702FC95
:100D9400401B6428F5D903209DE18C4B5B6813F458
:100DA400800FD2D0894B1B6813F4003F03D06368D3
:100DB400002B00F08D81236813F0020F67D0834B62
:100DC4009B6813F00C0F4AD0804B9B6803F00C0314
:100DD400082B3FD07D4B9B6803F00C030C2B48D0B1
:100DE400E368002B74D07A4B01221A60FFF7D2FB20
:100DF4000546764B1B6813F0020F60D1FFF7CAFB60
:100E0400401B0228F5D9032065E1704B5B6813F49D
:100E1400800FA0D0C6E76D4A136843F48033136093
:100E2400A9E76A4B1A6842F480221A601A6842F4ED
:100E340080321A609FE7FFF7ADFB0546634B1B68E2
:100E440013F4003FB7D0FFF7A5FB401B6428F5D986
:100E5400032040E15D4B5B6813F4800FBAD15B4B18
:100E64001B6813F0020F0AD0E368012B07D001209E
:100E740031E1564B5B6813F4800FB1D1EFE7534A6D
:100E8400136823F0F803216943EAC103136023685C
:100E940013F0080F40D0636963B34E4B01221A600C
:100EA400FFF778FB0546494B5B6F13F0020F33D114
:100EB400FFF770FB401B0228F5D903200BE1434ADE
:100EC400136823F0F803216943EAC1031360DEE7E2
:100ED4003F4B00221A60FFF75DFB05463B4B1B6846
:100EE40013F0020FD3D0FFF755FB401B0228F5D9AE
:100EF4000320F0E0374B00221A60FFF74BFB054656
:100F0400324B5B6F13F0020F06D0FFF743FB401B1D
:100F14000228F5D90320DEE0236813F0040F79D00A
:100F24002A4B1B6C13F0805F33D100230193274BB2
:100F34001A6C42F080521A641B6C03F080530193C4
:100F4400019B0125244B1B6813F4807F23D0A368E5
:100F5400012B34D0052B41D01C4B1A6F22F0010217
:100F64001A671A6F22F004021A67A368002B3FD095
:100F7400FFF710FB0646154B1B6F13F0020F48D109
:100F8400FFF708FB801B41F288339842F3D9032012
:100F9400A1E00025D6E7104A136843F48073136078
:100FA400FFF7F8FA06460C4B1B6813F4807FCED18A
:100FB400FFF7F0FA801B0228F5D903208BE0034ADF
:100FC400136F43F001031367CFE700BF00380240FB
:100FD40000004742800E474200700040404B1A6FA9
:100FE40042F004021A671A6F42F001021A67BCE762
:100FF400FFF7D0FA06463A4B1B6F13F0020F08D0E6
:10100400FFF7C8FA801B41F288339842F3D90320D2
:1010140061E0E5B9A369002B5CD0314A926802F023
:101024000C02082A59D0022B17D02E4B00221A602A
:10103400FFF7B0FA04462A4B1B6813F0007F45D033
:10104400FFF7A8FA001B0228F5D9032043E0244A3D
:10105400136C23F080531364DCE7224B00221A60E4
:10106400FFF798FA05461E4B1B6813F0007F06D065
:10107400FFF790FA401B0228F5D903202BE0E3691F
:10108400226A1343626A43EA8213A26A5208013A4B
:1010940043EA0243E26A43EA0263226B43EA0273CD
:1010A4000F4A53600F4B01221A60FFF773FA04468C
:1010B4000B4B1B6813F0007F06D1FFF76BFA001B84
:1010C4000228F5D9032006E0002004E0002002E015
:1010D400012000E0002002B070BD0120FBE700BF4A
:1010E400003802406000474230B4036A23F0010331
:1010F4000362056A4268846924F073040B681C4324
:1011040025F002058B682B43104DA84203D005F54A
:101114008065A84205D123F00803CD682B4323F052
:1011240004030A4DA84203D005F58065A84205D101
:1011340022F440724D6915438A692A4342608461EE
:101144004A684263036230BC704700BF000001403C
:1011540030B4036A23F480730362036A4268C46987
:1011640024F073040D682C4323F400738D6843EA60
:101174000523124DA84203D005F58065A84206D187
:1011840023F40063CD6843EA052323F480630B4D05
:10119400A84203D005F58065A84207D122F4405245
:1011A4004D6942EA05128D6942EA05124260C46142
:1011B4004A68C263036230BC704700BF000001404C
:1011C40030B4036A23F480530362036A4468C26937
:1011D40022F4E6420D6842EA052223F400538D68A6
:1011E40043EA0533094DA84203D005F58065A842BA
:1011F40004D124F480444D6944EA85144460C261F6
:101204004A680264036230BC704700BF00000140BA
:1012140010B4036A046A24F001040462846924F0AB
:10122400F00444EA021223F00A030B4382610362CE
:101234005DF8044B704710B4036A23F01003036293
:101244008469036A24F4704444EA023223F0A0035C
:1012540043EA0113826103625DF8044B70478368BB
:1012640023F07003194341F0070181607047704710
:101274007047704770477047704710B5044603685D
:101284001A6912F0020F11D0DA6812F0020F0DD0B1
:101294006FF002021A610123037703689B6913F05C
:1012A400030F70D0FFF7E6FF0023237723681A6942
:1012B40012F0040F12D0DA6812F0040F0ED06FF09F
:1012C40004021A610223237723689B6913F4407F85
:1012D4005FD02046FFF7CEFF0023237723681A69E7
:1012E40012F0080F12D0DA6812F0080F0ED06FF067
:1012F40008021A61042323772368DB6913F0030FC0
:101304004ED02046FFF7B6FF0023237723681A69DF
:1013140012F0100F12D0DA6812F0100F0ED06FF026
:1013240010021A61082323772368DB6913F4407FD2
:101334003DD02046FFF79EFF0023237723681A69D8
:1013440012F0010F03D0DA6812F0010F36D12368CE
:101354001A6912F0800F03D0DA6812F0800F34D1CA
:1013640023681A6912F0400F03D0DA6812F0400FB4
:1013740032D123681A6912F0200F03D0DA6812F010
:10138400200F30D110BDFFF774FF2046FFF773FF25
:101394008AE72046FFF76DFF2046FFF76CFF9BE7C7
:1013A4002046FFF766FF2046FFF765FFACE72046BF
:1013B400FFF75FFF2046FFF75EFFBDE76FF0010216
:1013C4001A612046FFF754FFC1E76FF080021A61EB
:1013D400204600F05FFAC3E76FF040021A6120462E
:1013E400FFF74AFFC5E76FF020021A61204600F0BC
:1013F40050FAC7E70368304A904212D0B0F1804FE8
:101404000FD0A2F57C4290420BD002F5806290424C
:1014140007D002F58062904203D002F578429042F0
:1014240003D123F070034A681343234A90422AD01D
:10143400B0F1804F27D0A2F57C42904223D002F530
:10144400806290421FD002F5806290421BD002F568
:101454007842904217D002F57052904213D002F5B0
:10146400806290420FD002F5806290420BD0A2F5C8
:101474009832904207D002F58062904203D002F580
:101484008062904203D123F44073CA68134323F06B
:1014940080034A69134303608B68C3620B688362E9
:1014A400054B984203D003F58063984201D10B6940
:1014B400036301234361704700000140A8B110B5E4
:1014C400044690F83D305BB1022384F83D30211D81
:1014D4002068FFF78FFF012384F83D30002010BD02
:1014E40080F83C3000F0ECFDEEE701207047A8B135
:1014F40010B5044690F83D305BB1022384F83D30CA
:10150400211D2068FFF776FF012384F83D30002079
:1015140010BD80F83C30FFF7AAFEEEE701207047CB
:10152400002849D0F8B505460C4690F83D30002B0C
:101534003DD0022385F83D30294651F8042B9368A9
:1015440023F4804323F0070393602868FFF752FFD6
:1015540029688A688E690F6A2068104326F44076E9
:1015640026F00306A268A36942EA0323334323F463
:101574007C4323F0FC03E668E26946EA02261E4344
:10158400226A1303226943EA0213334327F0AA07AA
:101594006268646942EA04123A43886029688B618C
:1015A4002B681A62012385F83D300020F8BD80F8CD
:1015B4003C3000F0B9FDBCE70120704730B4036A49
:1015C40023F010030362036A4468826922F4E6424A
:1015D4000D6842EA052223F020038D6843EA0513CF
:1015E400114DA84203D005F58065A84206D123F029
:1015F4008003CD6843EA051323F040030A4DA84253
:1016040003D005F58065A84207D124F440644D69F0
:1016140044EA85048D6944EA8504446082614A6829
:101624008263036230BC70470000014038B590F813
:101634003C30012B66D00D460446012380F83C3033
:10164400022380F83D300C2A1AD8DFE802F007198B
:101654001919201919193419191947000068FFF7C5
:1016640043FD2268936943F00803936122689369F8
:1016740023F0040393612268936929690B439361FE
:10168400012384F83D30002084F83C0038BD006814
:10169400FFF794FF2268936943F40063936122681F
:1016A400936923F48063936122689369296943EA07
:1016B40001239361E4E70068FFF74AFD2268D369D8
:1016C40043F00803D3612268D36923F00403D36190
:1016D4002268D36929690B43D361D1E70068FFF716
:1016E4006FFD2268D36943F40063D3612268D36930
:1016F40023F48063D3612268D369296943EA01230F
:10170400D361BDE70220C1E710B4846824F47F44A8
:1017140042EA03230B43234383605DF8044B704781
:1017240090F83C30012B66D010B50446012380F8B4
:101734003C30022380F83D300268936823F47F43F1
:1017440023F0770393600B68402B4AD013D9602BA6
:101754003DD01ED9702B28D0B3F5005F30D1CB68B3
:101764004A6889680068FFF7CFFF2268936843F4EA
:101774008043936024E0102B06D004D9202B03D09F
:10178400302B01D01CE0DBB919462068FFF767FD58
:1017940016E0502B14D1CA6849680068FFF738FD79
:1017A40050212068FFF75BFD0AE0CB684A6889682E
:1017B4000068FFF7A9FF2268936843F077039360FA
:1017C400012384F83D30002084F83C0010BDCA6831
:1017D40049680068FFF72FFD60212068FFF73FFD8F
:1017E400EEE7CA6849680068FFF712FD40212068E7
:1017F400FFF735FDE4E70220704790F83C30012BF9
:101804001CD070B4012680F83C60022380F83D307F
:1018140002685568936825F070050C682C4323F022
:1018240080054B682B4354600268936080F83D60E8
:10183400002380F83C30184670BC70470220704783
:1018440090F83C30012B22D0012380F83C30CB6847
:1018540023F440738A68134323F480634A68134370
:1018640023F400630A68134323F480530A6913437F
:1018740023F400534A69134323F48043CA6913438E
:1018840002685364002380F83C30184670470220F5
:1018940070477047704700002DE9F843044602681A
:1018A400136923F44053C1680B43136183680269CD
:1018B400134342691343C2691A430168CB6823F492
:1018C400164323F00C031343CB600268536923F4DB
:1018D400407381690B435361C369B3F5004F60D012
:1018E4000368B84A934200F0148102F5806293427F
:1018F40000F00F81FFF764F900EB800000EB80003B
:101904006568AD00B0FBF5F5AF4FA7FB05356D0974
:101914002E01FFF755F900EB800000EB80006568AD
:10192400AD00B0FBF5F9FFF74BF900EB800000EBDD
:1019340080006568AD00B0FBF5F5A7FB05356D09C2
:101944004FF0640808FB15952D013235A7FB0535CA
:101954006D0905F0F0053544FFF732F900EB80001E
:1019640000EB80006668B600B0FBF6F6FFF728F9D6
:1019740000EB800000EB800063689B00B0FBF3F099
:10198400A7FB0030400908FB10684FEA081808F16B
:101994003208A7FB0837C7F3431723682F449F6017
:1019A4000DE10368874A93425BD002F5806293425B
:1019B40057D0FFF705F900EB800000EB8000656865
:1019C4006D00B0FBF5F5804FA7FB05356D092E01C1
:1019D400FFF7F6F800EB800000EB800065686D000F
:1019E400B0FBF5F9FFF7ECF800EB800000EB8000AA
:1019F40065686D00B0FBF5F5A7FB05356D094FF083
:101A0400640808FB1595ED003235A7FB05356D0913
:101A14006D0005F4F8753544FFF7D2F800EB80004B
:101A240000EB800066687600B0FBF6F6FFF7C8F8B6
:101A340000EB800000EB800063685B00B0FBF3F315
:101A4400A7FB03235B0908FB13684FEAC80808F1E6
:101A54003208A7FB0837C7F3421723682F449F6057
:101A6400ADE0FFF7BDF800EB800000EB8000656897
:101A74006D00B0FBF5F5544FA7FB05356D092E013C
:101A8400FFF7AEF800EB800000EB800065686D00A6
:101A9400B0FBF5F9FFF7A4F800EB800000EB800041
:101AA40065686D00B0FBF5F5A7FB05356D094FF0D2
:101AB400640808FB1595ED003235A7FB05356D0963
:101AC4006D0005F4F8753544FFF78AF800EB8000E3
:101AD40000EB800066687600B0FBF6F6FFF780F84E
:101AE40000EB800000EB800063685B00B0FBF3F365
:101AF400A7FB03235B0908FB13684FEAC80808F136
:101B04003208A7FB0837C7F3421723682F449F60A6
:101B140055E0FFF765F800EB800000EB8000656896
:101B2400AD00B0FBF5F5284FA7FB05356D092E0177
:101B3400FFF756F800EB800000EB80006568AD000D
:101B4400B0FBF5F9FFF74CF800EB800000EB8000E8
:101B54006568AD00B0FBF5F5A7FB05356D094FF0E1
:101B6400640808FB15952D013235A7FB05356D0971
:101B740005F0F0053544FFF733F800EB800000EB87
:101B840080006668B600B0FBF6F6FFF729F800EBB4
:101B9400800000EB800063689B00B0FBF3F0A7FBC0
:101BA4000030400908FB10684FEA081808F13208B1
:101BB400A7FB0837C7F3431723682F449F60BDE88A
:101BC400F88300BF001001401F85EB5158B310B5D6
:101BD400044690F839300BB3242384F83930226852
:101BE400D36823F40053D3602046FFF755FE2268E0
:101BF400136923F4904313612268536923F02A0381
:101C040053612268D36843F40053D3600020E06337
:101C1400202384F8393084F83A3010BD80F8383005
:101C240000F00AFBD8E70120704700002DE9F041DD
:101C34008AB00024059406940794089409940194A6
:101C4400334B1A6B42F080021A631A6B02F0800263
:101C54000192019A02941A6B42F004021A631A6BFD
:101C640002F004020292029A03941A6B42F00102F7
:101C74001A631A6B02F001020392039A04941A6B1A
:101C840042F002021A631B6B03F002030493049BE9
:101C9400204E22464FF47B713046FEF7C9FDDFF833
:101CA4007C8022464FF460414046FEF7C1FD1A4F46
:101CB40022464FF480613846FEF7BAFD03230593AC
:101CC4000694079405A93046FEF7D4FC4FF47B73C1
:101CD4000593012506950794089405A93046FEF757
:101CE400C9FC4FF46043059306950794089405A92D
:101CF4004046FEF7BFFC4FF48063059306950794B6
:101D0400089405A93846FEF7B5FC0AB0BDE8F08191
:101D14000038024000080240000002400004024073
:101D240008B50948094B0360094B436000238360ED
:101D3400C3604FF48042026143618361C361036203
:101D4400FEF77CFD08BD00BF2800002000540040C1
:101D5400A086010030B583B00025009501950B4C99
:101D64000B4B636540F28333A365E56540F2E733CB
:101D74002366E56654342046FFF7A0FB00950195E1
:101D840069462046FFF739FD03B030BD2800002026
:101D94000014004030B597B00024129413941494A6
:101DA40015941094119409940A940B940C940D9422
:101DB4000E940F942022214601A800F0FFFA254D2D
:101DC400254BC5F894305923C5F89830C5F89C4084
:101DD40040F2E733C5F8A030C5F8A440C5F8A840E0
:101DE400C5F8AC4094352846FFF768FB4FF48053A0
:101DF400129312A92846FFF793FC2846FFF777FBB6
:101E04001094119410A92846FFF7F7FC6023099356
:101E14000A940B940C940D940E940F94224609A9E1
:101E24002846FFF703FC042209A92846FFF7FEFB16
:101E3400019402940394049405944FF4005306937C
:101E4400089401A92846FFF7FBFC284600F0C6F9D0
:101E540017B030BD280000200000014030B58DB01F
:101E64002022002104A800F0A9FA0025019502957A
:101E7400104C4FF08043C4F8D430C4F8D850C4F8A0
:101E8400DC504FF6FF73C4F8E030C4F8E450C4F8F3
:101E9400EC500123039305930993D43403A92046FA
:101EA400FFF73EFB0195029501A92046FFF7A5FC2B
:101EB4000DB030BD2800002030B58DB020220021A7
:101EC40004A800F07BFA002501950295104C114BF3
:101ED400C4F81431C4F81851C4F81C514FF6FF73F8
:101EE400C4F82031C4F82451C4F82C5101230393BD
:101EF4000593099304F58A7403A92046FFF710FBA0
:101F04000195029501A92046FFF777FC0DB030BD7D
:101F1400280000200004004008B50D480D4BC0F80F
:101F240054314FF4E133C0F858310023C0F85C3128
:101F3400C0F86031C0F864310C22C0F86821C0F8E0
:101F44006C31C0F8703100F5AA70FFF73FFE08BD90
:101F5400280000200044004030B595B03422002110
:101F640007A800F02BFA0024029403940494059427
:101F7400069400941B4B1A6C42F080521A641B6C3A
:101F840003F080530093009B0194174B1A6842F4AA
:101F940040421A601B6803F440430193019B0225ED
:101FA400079501230A9310230B930D950E94082390
:101FB4000F93B423109311951295139507A8FEF768
:101FC400B1FEFEF70BFD0F230293039504944FF427
:101FD400A05305930693052102A8FEF73FFD15B013
:101FE40030BD00BF003802400070004008B5FEF765
:101FF400ABFAFFF7B1FFFFF719FEFFF791FEFFF70A
:10200400C9FEFFF72BFFFFF757FFFFF785FFFFF729
:10201400A1FEFEE782B0002100910B4B5A6C42F402
:1020240080425A645A6C02F480420092009A0191F0
:102034001A6C42F080521A641B6C03F080530193B3
:10204400019B02B0704700BF0038024030B589B030
:102054000023039304930593069307930268154B97
:102064009A4201D009B030BD00250195124C236B72
:1020740043F002032363236B03F002030193019BE8
:10208400C02303931223049301230593032306938C
:102094000423079303A90948FEF7ECFA0295236C7D
:1020A40043F400132364236C03F400130293029B90
:1020B400D8E700BF0054004000380240000402404A
:1020C40000B583B00368154A934205D0144A93427D
:1020D4000FD003B05DF804FB00230093114B5A6C3E
:1020E40042F001025A645B6C03F001030093009B0D
:1020F400EFE7002101910B4B1A6C42F020021A64A5
:102104001B6C03F020030193019B0A463720FEF762
:1021140059FA3720FEF78AFADBE700BF00000140D6
:10212400001400400038024000B58BB00023059332
:1021340006930793089309930368B3F1804F05D07E
:10214400234A934224D00BB05DF804FB0021019193
:1021540003F50E331A6C42F001021A641A6C02F091
:1021640001020192019A02911A6B42F001021A6370
:102174001B6B03F001030293029B222305930223AA
:1021840006930123099305A91248FEF773FADAE7C7
:1021940000210391104B1A6C42F002021A641A6C6B
:1021A40002F002020392039A04911A6B42F00102B4
:1021B4001A631B6B03F001030493049BC023059370
:1021C40002230693099305A90248FEF753FABAE7D6
:1021D40000040040000002400038024000B587B00F
:1021E40000230193029303930493059302680F4B16
:1021F4009A4202D007B05DF804FB002300930C4B15
:102204001A6B42F001021A631B6B03F00103009383
:10221400009B4FF44073019302230293012305931F
:1022240001A90448FEF726FAE4E700BF00000140D4
:10223400003802400000024000B589B00023039337
:1022440004930593069307930268164B9A4202D0AF
:1022540009B05DF804FB0021019103F5FA331A6C0F
:1022640042F400321A641A6C02F400320192019AA8
:1022740002911A6B42F001021A631B6B03F0010313
:102284000293029B0C2303930223049301230593DB
:10229400032306930723079303A90348FEF7EAF9E8
:1022A400D6E700BF00440040000002407047FEE74C
:1022B400FEE7FEE7FEE770477047704708B5FEF794
:1022C4005DF908BD08B50248FEF7D7FF08BD00BF99
:1022D4007C0000200F49D1F8883043F47003C1F822
:1022E40088300D4B1A6842F001021A600020986091
:1022F4001A6822F0847222F480321A60074A5A6003
:102304001A6822F480221A60D8604FF000638B6050
:10231400704700BF00ED00E0003802401030002498
:10232400DFF834D0002103E00C4B5B5843500431F8
:102334000B480C4B42189A42F6D30B4A02E0002396
:1023440042F8043B094B9A42F9D3FFF7C3FF00F06C
:1023540011F8FFF74BFE704700000220102400081C
:10236400000000200C0000200C000020C001002010
:10237400FEE7000070B50D4E0D4CA41BA410002503
:10238400A54209D10B4E0C4C00F020F8A41BA4105C
:102394000025A54205D170BD56F825309847013572
:1023A400EEE756F8253098470135F2E7082400088F
:1023B40008240008082400080C24000802440346EA
:1023C400934200D1704703F8011BF9E7F8B500BF49
:1023D400F8BC08BC9E467047F8B500BFF8BC08BC02
:0423E4009E4670475A
:1023E80000000000000000000102030406070809BD
:0823F8000000000001020304D3
:0824000034DEFF7F0100000043
:04240800E9010008DE
:04240C00C5010008FE
:0C24100001000000100000000024F40097
:0400000508002325A7
:00000001FF
